:020000040800F2
:1000000000280020450A0008E9090008EF09000857
:10001000F5090008FB090008010A000800000000BB
:10002000000000000000000000000000070A0008B7
:10003000130A0008000000001F0A00082B0A00082D
:100040008D0A00088D0A00088D0A00088D0A000834
:100050008D0A00088D0A00088D0A00088D0A000824
:100060008D0A00088D0A00088D0A00088D0A000814
:100070008D0A00088D0A00088D0A00088D0A000804
:100080008D0A00088D0A00088D0A00088D0A0008F4
:100090008D0A00088D0A00088D0A00088D0A0008E4
:1000A0008D0A00088D0A00088D0A00088D0A0008D4
:1000B0008D0A00088D0A0008000000008D0A000863
:1000C0008D0A000800000000000000008D0A0008F2
:1000D000000000008D0A00088D0A000800000000E2
:1000E0008D0A00088D0A00088D0A00080000000033
:1000F0000000000000000000000000000000000000
:0C01000000000000000000005FF808F1A3
:10010C0010B5054C237833B9044B13B10448AFF345
:10011C0000800123237010BD1C0000200000000093
:10012C009818000808B5034B1BB103490348AFF3FB
:10013C00008008BD00000000200000209818000876
:10014C0080B500AF012201211F4800F07FFF012282
:10015C0002211D4800F07AFF012204211A4800F008
:10016C0075FF01220821184800F070FF01221021B0
:10017C00154800F06BFF01222021134800F066FFA8
:10018C0001224021104800F061FF012280210E481D
:10019C0000F05CFF01224FF480710B4800F056FF19
:1001AC0001224FF40071084800F050FF01224FF477
:1001BC008061054800F04AFF01224FF400610248BB
:1001CC0000F044FF00BF80BD000C014080B500AFC3
:1001DC00AB4B1B68052B07D0052B00F3A480022B1F
:1001EC0037D0032B6AD09EE001224FF48061A548E2
:1001FC0000F02CFF00224FF40061A24800F026FF13
:10020C00002201219F4800F021FF012210219D486E
:10021C0000F01CFF002220219A4800F017FF00225A
:10022C004021984800F012FF974B1B68184600F0CD
:10023C0031F9954B1B68013B934A1360924B1B6839
:10024C00002B72DC8E4B03221A608F4B03221A6038
:10025C006BE000224FF480618A4800F0F7FE012227
:10026C004FF40061874800F0F1FE0022012185481F
:10027C0000F0ECFE00221021824800F0E7FE012283
:10028C002021804800F0E2FE002240217D4800F051
:10029C00DDFE7D4B1B68184600F0FCF87A4B1B68A2
:1002AC00013B794A1360784B1B68002B3FDC744B85
:1002BC0005221A60744B05221A6038E000224FF4B4
:1002CC008061704800F0C2FE00224FF400616D485E
:1002DC0000F0BCFE012201216A4800F0B7FE0022AA
:1002EC001021684800F0B2FE00222021654800F081
:1002FC00ADFE01224021634800F0A8FE624B1B6852
:10030C00184600F0C7F8604B1B68013B5E4A13604F
:10031C005D4B1B68002B0CDC594B02221A605A4BAC
:10032C0002221A6005E000BF04E000BF02E000BF3B
:10033C0000E000BF554B1B68052B07D0052B00F3C5
:10034C009580022B32D0032B60D08FE0012202214A
:10035C004C4800F07BFE002204214A4800F076FE57
:10036C0000220821474800F071FE012280214548F7
:10037C0000F06CFE00224FF48071424800F066FEE3
:10038C0000224FF400713F4800F060FE404B1B68A8
:10039C00013B3F4A13603E4B1B68002B68DC3B4B18
:1003AC0003221A603A4B03221A6061E000220221F8
:1003BC00344800F04BFE01220421324800F046FE86
:1003CC00002208212F4800F041FE002280212D48F8
:1003DC0000F03CFE01224FF480712A4800F036FEFA
:1003EC0000224FF40071274800F030FE284B1B68A8
:1003FC00013B274A1360264B1B68002B3ADC234B2E
:10040C0005221A60224B05221A6033E000220221D9
:10041C001C4800F01BFE002204211A4800F016FEB6
:10042C0001220821174800F011FE002280211548F6
:10043C0000F00CFE00224FF48071124800F006FE12
:10044C0001224FF400710F4800F000FE104B1B68A6
:10045C00013B0F4A13600E4B1B68002B0CDC0B4B43
:10046C0002221A600A4B02221A6005E000BF04E067
:10047C0000BF02E000BF00E000BF00BF80BD00BFB6
:10048C0000000020000C01400800002004000020A7
:10049C000C00002080B582B000AF78607B68092B1F
:1004AC0000F2BC8101A252F823F000BFE104000865
:1004BC003505000889050008DD050008310600082F
:1004CC0085060008D90600082D07000881070008DA
:1004DC00D507000800228021D24800F0B7FD002289
:1004EC004FF48071CF4800F0B1FD00224FF4007141
:1004FC00CC4800F0ABFD00224FF48061C94800F0FD
:10050C00A5FD00224FF40061C64800F09FFD0022BB
:10051C004FF48051C34800F099FD01224FF4005173
:10052C00C04800F093FD79E101228021BD4800F024
:10053C008DFD00224FF48071BA4800F087FD002237
:10054C004FF40071B74800F081FD01224FF4806137
:10055C00B44800F07BFD01224FF40061B14800F07B
:10056C0075FD01224FF48051AE4800F06FFD012261
:10057C004FF40051AB4800F069FD4FE1002280219F
:10058C00A84800F063FD00224FF48071A54800F0EC
:10059C005DFD01224FF40071A24800F057FD0022CE
:1005AC004FF480619F4800F051FD00224FF4006130
:1005BC009C4800F04BFD01224FF48051994800F00B
:1005CC0045FD00224FF40051964800F03FFD25E117
:1005DC0000228021934800F039FD00224FF48071F5
:1005EC00904800F033FD00224FF400718D4800F06C
:1005FC002DFD00224FF480618A4800F027FD012276
:10060C004FF40061874800F021FD01224FF4805126
:10061C00844800F01BFD00224FF40051814800F08B
:10062C0015FDFBE0012280217E4800F00FFD002229
:10063C004FF480717B4800F009FD00224FF40071EB
:10064C00784800F003FD01224FF48061754800F0FA
:10065C00FDFC01224FF40061724800F0F7FC00220F
:10066C004FF480516F4800F0F1FC00224FF4005120
:10067C006C4800F0EBFCD1E000228021694800F0CE
:10068C00E5FC01224FF48071664800F0DFFC00228B
:10069C004FF40071634800F0D9FC00224FF48061E4
:1006AC00604800F0D3FC01224FF400615D4800F07B
:1006BC00CDFC00224FF480515A4800F0C7FC0022B8
:1006CC004FF40051574800F0C1FCA7E000228021F4
:1006DC00544800F0BBFC01224FF48071514800F0EB
:1006EC00B5FC00224FF400714E4800F0AFFC002224
:1006FC004FF480614B4800F0A9FC00224FF40061DC
:10070C00484800F0A3FC00224FF48051454800F00B
:10071C009DFC00224FF40051424800F097FC7DE014
:10072C00002280213F4800F091FC00224FF48071A0
:10073C003C4800F08BFC00224FF40071394800F06B
:10074C0085FC01224FF48061364800F07FFC0122C9
:10075C004FF40061334800F079FC01224FF48051D2
:10076C00304800F073FC01224FF400512D4800F08A
:10077C006DFC53E0002280212A4800F067FC002227
:10078C004FF48071274800F061FC00224FF4007197
:10079C00244800F05BFC00224FF48061214800F0FB
:1007AC0055FC00224FF400611E4800F04FFC002263
:1007BC004FF480511B4800F049FC00224FF40051CB
:1007CC00184800F043FC29E000228021154800F075
:1007DC003DFC00224FF48071124800F037FC0022DF
:1007EC004FF400710F4800F031FC00224FF480618F
:1007FC000C4800F02BFC01224FF40061094800F07A
:10080C0025FC00224FF48051064800F01FFC00220A
:10081C004FF40051034800F019FC00BF00BF08372B
:10082C00BD4680BD0008014080B500AF00F02AF93C
:10083C0000F00BF800F044F8FFF782FCFFF7C6FC61
:10084C004FF47A7000F080F9F6E780B590B000AF05
:10085C0007F1180328220021184601F00FF83B1D60
:10086C0000221A605A609A60DA601A610223BB6136
:10087C000123BB621023FB6200237B6307F1180387
:10088C00184600F0FBFB0346002B01D000F06EF87D
:10089C000F237B600023BB600023FB6000233B61C4
:1008AC0000237B613B1D0021184600F067FE0346C8
:1008BC00002B01D000F05AF800BF4037BD4680BD78
:1008CC0080B586B000AF07F1080300221A605A60A9
:1008DC009A60DA60224B9B69214A43F004039361CE
:1008EC001F4B9B6903F004037B607B681C4B9B696B
:1008FC001B4A43F008039361194B9B6903F00803EF
:10090C003B603B68002243F6F071164800F09EFBFA
:10091C00002240F6FF71144800F098FB43F6F07388
:10092C00BB600123FB6000233B6102237B6107F169
:10093C00080319460B4800F00FFA40F6FF73BB6032
:10094C000123FB6000233B6102237B6107F1080359
:10095C001946054800F000FA00BF1837BD4680BDA7
:10096C000010024000080140000C014080B400AFB0
:10097C0072B600BFFEE7000080B485B000AF154B27
:10098C009B69144A43F001039361124B9B6903F07A
:10099C000103BB60BB680F4BDB690E4A43F080530D
:1009AC00D3610C4BDB6903F080537B607B680A4B93
:1009BC005B68FB60FB6823F0E063FB60FB6843F063
:1009CC008063FB60044AFB68536000BF1437BD466C
:1009DC0080BC7047001002400000014080B400AFA2
:1009EC00FEE780B400AFFEE780B400AFFEE780B452
:1009FC0000AFFEE780B400AFFEE780B400AF00BFED
:100A0C00BD4680BC704780B400AF00BFBD4680BC03
:100A1C00704780B400AF00BFBD4680BC704780B546
:100A2C0000AF00F075F800BF80BD80B400AF00BF10
:100A3C00BD4680BC70470000FFF7F7FF0B480C4920
:100A4C000C4A002302E0D458C4500433C4188C421E
:100A5C00F9D3094A094C002301E013600432A24285
:100A6C00FBD300F0E7FEFFF7DFFE7047000000202D
:100A7C001C000020DC1800081C0000203C0000209A
:100A8C00FEE7000080B500AF084B1B68074A43F037
:100A9C0010031360032000F02BF90F2000F008F86E
:100AAC00FFF76AFF0023184680BD00BF00200240FC
:100ABC0080B582B000AF7860124B1A68124B1B786D
:100ACC0019464FF47A73B3FBF1F3B2FBF3F3184608
:100ADC0000F035F90346002B01D001230EE07B68B2
:100AEC000F2B0AD8002279684FF0FF3000F00BF979
:100AFC00064A7B681360002300E001231846083780
:100B0C00BD4680BD100000201800002014000020FD
:100B1C0080B400AF054B1B781A46054B1B68134479
:100B2C00034A136000BFBD4680BC7047180000200C
:100B3C003800002080B400AF024B1B681846BD463D
:100B4C0080BC70473800002080B584B000AF78605E
:100B5C00FFF7F0FFB8607B68FB60FB68B3F1FF3F09
:100B6C0005D00A4B1B781A46FB681344FB6000BF88
:100B7C00FFF7E0FF0246BB68D31AFA689A42F7D82F
:100B8C0000BF00BF1037BD4680BD00BF180000205D
:100B9C0080B485B000AF78607B6803F00703FB601E
:100BAC000C4BDB68BB60BA684FF6FF031340BB60AD
:100BBC00FB681A02BB68134343F0BF6343F4003372
:100BCC00BB60044ABB68D36000BF1437BD4680BC11
:100BDC00704700BF00ED00E080B400AF044BDB6851
:100BEC001B0A03F007031846BD4680BC704700BFC4
:100BFC0000ED00E080B483B000AF03463960FB71B8
:100C0C0097F90730002B0ADB3B68DAB20C4997F9ED
:100C1C0007301201D2B20B4483F800230AE03B6880
:100C2C00DAB20849FB7903F00F03043B1201D2B28C
:100C3C000B441A7600BF0C37BD4680BC704700BF12
:100C4C0000E100E000ED00E080B489B000AFF86096
:100C5C00B9607A60FB6803F00703FB61FB69C3F1C1
:100C6C000703042B28BF0423BB61FB690433062B49
:100C7C0002D9FB69033B00E000237B614FF0FF329C
:100C8C00BB6902FA03F3DA43BB681A407B699A40EA
:100C9C004FF0FF317B6901FA03F3D9437B680B40BA
:100CAC00134318462437BD4680BC704780B582B0CC
:100CBC0000AF78607B68013BB3F1807F01D30123E7
:100CCC000FE00A4A7B68013B53600F214FF0FF3065
:100CDC00FFF790FF054B00229A60044B07221A6025
:100CEC00002318460837BD4680BD00BF10E000E069
:100CFC0080B582B000AF78607868FFF749FF00BF1D
:100D0C000837BD4680BD80B586B000AF0346B960DC
:100D1C007A60FB7300237B61FFF75EFF78617A6872
:100D2C00B9687869FFF790FF024697F90F301146C2
:100D3C001846FFF75FFF00BF1837BD4680BD80B572
:100D4C0082B000AF78607868FFF7B0FF03461846B2
:100D5C000837BD4680BD000080B48BB000AF786012
:100D6C00396000237B6200233B6248E101227B6AED
:100D7C0002FA03F3FB613B681B68FA691340BB6121
:100D8C00BA69FB699A4240F037813B685B68A34AB9
:100D9C0093425ED0A14A934275D8A14A934258D04F
:100DAC009F4A93426FD89F4A934252D09D4A934296
:100DBC0069D89D4A93424CD09B4A934263D89B4A34
:100DCC00934246D0994A93425DD8122B2AD8122BC3
:100DDC0059D801A252F823F05F0E0008390E000812
:100DEC004B0E00088D0E0008930E0008930E0008A1
:100DFC00930E0008930E0008930E0008930E000843
:100E0C00930E0008930E0008930E0008930E000832
:100E1C00930E0008930E0008930E0008410E000874
:100E2C00550E0008824A934213D02CE03B68DB68D5
:100E3C003B6229E03B68DB6804333B6224E03B689F
:100E4C00DB6808333B621FE03B68DB680C333B62BA
:100E5C001AE03B689B68002B02D104233B6213E031
:100E6C003B689B68012B05D108233B627B68FA69C0
:100E7C001A6109E008233B627B68FA695A6103E056
:100E8C0000233B6200E000BFBB69FF2B01D87B68ED
:100E9C0001E07B6804337B61BB69FF2B02D87B6A62
:100EAC009B0002E07B6A083B9B003B617B691A68F4
:100EBC000F213B6901FA03F3DB431A40396A3B69A2
:100ECC0001FA03F31A437B691A603B685B6803F011
:100EDC008053002B00F09080564B9B69554A43F091
:100EEC0001039361534B9B6903F00103BB60BB6827
:100EFC00514A7B6A9B08023352F82330FB607B6AB1
:100F0C0003F003039B000F2202FA03F3DB43FA689E
:100F1C001340FB607B68494A93420DD07B68484A7A
:100F2C00934207D07B68474A934201D1022304E0E5
:100F3C00032302E0012300E000237A6A02F003029B
:100F4C0092009340FA681343FB603B497B6A9B0811
:100F5C000233FA6841F823203B685B6803F4801382
:100F6C00002B06D0384B9A683749BB6913438B600A
:100F7C0006E0354B9A68BB69DB43334913408B6001
:100F8C003B685B6803F40013002B06D02E4BDA6829
:100F9C002D49BB691343CB6006E02B4BDA68BB6968
:100FAC00DB4329491340CB603B685B6803F4003397
:100FBC00002B06D0244B5A682349BB6913434B6062
:100FCC0006E0214B5A68BB69DB431F4913404B6059
:100FDC003B685B6803F48033002B06D01A4B1A680D
:100FEC001949BB6913430B6006E0174B1A68BB69C0
:100FFC00DB43154913400B607B6A01337B623B6812
:10100C001A687B6A22FA03F3002B7FF4AFAE00BFA1
:10101C0000BF2C37BD4680BC704700BF00003210AB
:10102C0000003110000022100000211000001210EE
:10103C0000001110001002400000014000080140A7
:10104C00000C0140001001400004014080B483B04A
:10105C0000AF78600B467B8013467B707B78002B4F
:10106C0003D07A887B681A6103E07B881A047B685A
:10107C001A6100BF0C37BD4680BC704780B586B086
:10108C0000AF78607B68002B01D101236CE27B6898
:10109C001B6803F00103002B00F08780924B5B6808
:1010AC0003F00C03042B0CD08F4B5B6803F00C0388
:1010BC00082B12D18C4B5B6803F48033B3F5803F63
:1010CC000BD1894B1B6803F40033002B6CD07B686D
:1010DC005B68002B68D1012346E27B685B68B3F543
:1010EC00803F06D1804B1B687F4A43F480331360EA
:1010FC002EE07B685B68002B0CD17B4B1B687A4A1B
:10110C0023F480331360784B1B68774A23F48023D5
:10111C0013601DE07B685B68B3F5A02F0CD1724B9C
:10112C001B68714A43F4802313606F4B1B686E4A33
:10113C0043F4803313600BE06B4B1B686A4A23F457
:10114C0080331360684B1B68674A23F48023136059
:10115C007B685B68002B13D0FFF7ECFC386108E070
:10116C00FFF7E8FC02463B69D31A642B01D9032331
:10117C00FAE15D4B1B6803F40033002BF0D014E054
:10118C00FFF7D8FC386108E0FFF7D4FC02463B6956
:10119C00D31A642B01D90323E6E1534B1B6803F4E8
:1011AC000033002BF0D100E000BF7B681B6803F01C
:1011BC000203002B63D04C4B5B6803F00C03002B39
:1011CC000BD0494B5B6803F00C03082B1CD1464B2E
:1011DC005B6803F48033002B16D1434B1B6803F080
:1011EC000203002B05D07B681B69012B01D0012366
:1011FC00BAE13D4B1B6823F0F8027B685B69DB00AE
:10120C00394913430B603AE07B681B69002B20D0F3
:10121C00364B01221A60FFF78DFC386108E0FFF7AE
:10122C0089FC02463B69D31A022B01D903239BE1AB
:10123C002D4B1B6803F00203002BF0D02A4B1B68CC
:10124C0023F0F8027B685B69DB00274913430B60D2
:10125C0015E0264B00221A60FFF76CFC386108E0A1
:10126C00FFF768FC02463B69D31A022B01D9032312
:10127C007AE11D4B1B6803F00203002BF0D17B6855
:10128C001B6803F00803002B3AD07B689B69002B8A
:10129C0019D0174B01221A60FFF74CFC386108E09B
:1012AC00FFF748FC02463B69D31A022B01D90323F2
:1012BC005AE10D4B5B6A03F00203002BF0D00120C6
:1012CC0000F09AFA1CE00A4B00221A60FFF732FC7D
:1012DC0038610FE0FFF72EFC02463B69D31A022B54
:1012EC0008D9032340E100BF001002400000424235
:1012FC00800442429E4B5B6A03F00203002BE9D14F
:10130C007B681B6803F00403002B00F0A68000230D
:10131C00FB75974BDB6903F08053002B0DD1944B7D
:10132C00DB69934A43F08053D361914BDB6903F043
:10133C008053BB60BB680123FB758E4B1B6803F4A9
:10134C008073002B18D18B4B1B688A4A43F4807333
:10135C001360FFF7EFFB386108E0FFF7EBFB024689
:10136C003B69D31A642B01D90323FDE0814B1B6825
:10137C0003F48073002BF0D07B68DB68012B06D163
:10138C007B4B1B6A7A4A43F0010313622DE07B68A6
:10139C00DB68002B0CD1764B1B6A754A23F00103DA
:1013AC001362734B1B6A724A23F0040313621CE032
:1013BC007B68DB68052B0CD16D4B1B6A6C4A43F0C8
:1013CC00040313626A4B1B6A694A43F001031362FC
:1013DC000BE0674B1B6A664A23F001031362644BF4
:1013EC001B6A634A23F0040313627B68DB68002BDF
:1013FC0015D0FFF79FFB38610AE0FFF79BFB024615
:10140C003B69D31A41F28832934201D90323ABE0F2
:10141C00574B1B6A03F00203002BEED014E0FFF7CE
:10142C0089FB38610AE0FFF785FB02463B69D31A5A
:10143C0041F28832934201D9032395E04C4B1B6A4D
:10144C0003F00203002BEED1FB7D012B05D1484BA1
:10145C00DB69474A23F08053D3617B68DB69002B3F
:10146C0000F08180424B5B6803F00C03082B61D0C9
:10147C007B68DB69022B46D13F4B00221A60FFF7D9
:10148C0059FB386108E0FFF755FB02463B69D31A5C
:10149C00022B01D9032367E0354B1B6803F0007363
:1014AC00002BF0D17B681B6AB3F5803F08D1304B21
:1014BC005B6823F400327B689B682D4913434B60B7
:1014CC002B4B5B6823F474127B68196A7B685B6A2C
:1014DC000B43274913434B60274B01221A60FFF73C
:1014EC0029FB386108E0FFF725FB02463B69D31A5C
:1014FC00022B01D9032337E01D4B1B6803F000734B
:10150C00002BF0D02FE01C4B00221A60FFF712FBCF
:10151C00386108E0FFF70EFB02463B69D31A022B39
:10152C0001D9032320E0124B1B6803F00073002B3E
:10153C00F0D118E07B68DB69012B01D1012313E0AA
:10154C000B4B5B68FB60FB6803F480327B681B6AA7
:10155C009A4206D1FB6803F470127B685B6A9A426C
:10156C0001D0012300E0002318461837BD4680BD8A
:10157C0000100240007000406000424280B584B010
:10158C0000AF786039607B68002B01D10123D0E07B
:10159C006A4B1B6803F007033A689A4210D9674BF1
:1015AC001B6823F0070265493B6813430B60634BD0
:1015BC001B6803F007033A689A4201D00123B8E094
:1015CC007B681B6803F00203002B20D07B681B6830
:1015DC0003F00403002B05D0594B5B68584A43F4C5
:1015EC00E06353607B681B6803F00803002B05D095
:1015FC00534B5B68524A43F460535360504B5B68E7
:10160C0023F0F0027B689B684D4913434B607B6869
:10161C001B6803F00103002B40D07B685B68012B37
:10162C0007D1474B1B6803F40033002B15D1012362
:10163C007FE07B685B68022B07D1414B1B6803F092
:10164C000073002B09D1012373E03D4B1B6803F0A1
:10165C000203002B01D101236BE0394B5B6823F0B3
:10166C0003027B685B68364913434B60FFF762FAF1
:10167C00F8600AE0FFF75EFA0246FB68D31A41F203
:10168C008832934201D9032353E02D4B5B6803F05E
:10169C000C027B685B689B009A42EBD1274B1B6862
:1016AC0003F007033A689A4210D2244B1B6823F0CC
:1016BC00070222493B6813430B60204B1B6803F065
:1016CC0007033A689A4201D0012332E07B681B6819
:1016DC0003F00403002B08D0194B5B6823F4E06281
:1016EC007B68DB68164913434B607B681B6803F00F
:1016FC000803002B09D0124B5B6823F460527B6803
:10170C001B69DB000E4913434B6000F021F80246C5
:10171C000B4B5B681B0903F00F030A49CB5C22FAE5
:10172C0003F3094A1360094B1B681846FFF7C0F90D
:10173C00002318461037BD4680BD00BF0020024074
:10174C0000100240B0180008100000201400002007
:10175C0080B487B000AF0023FB600023BB60002384
:10176C007B6100237B6000233B611E4B5B68FB604D
:10177C00FB6803F00C03042B02D0082B03D027E0EA
:10178C00194B3B6127E0FB689B0C03F00F03174AD6
:10179C00D35C7B60FB6803F48033002B10D0114BBF
:1017AC005B685B0C03F00103114AD35CBB607B6884
:1017BC000D4A02FB03F2BB68B2FBF3F37B6104E05E
:1017CC007B680C4A02FB03F37B617B693B6102E0A3
:1017DC00054B3B6100BF3B6918461C37BD4680BCBE
:1017EC00704700BF0010024000127A00C0180008B9
:1017FC00D018000800093D0080B485B000AF7860B7
:10180C000A4B1B680A4AA2FB03235B0A7A6802FB99
:10181C0003F3FB6000BFFB685A1EFA60002BF9D182
:10182C0000BF00BF1437BD4680BC704710000020BD
:10183C00D34D621070B500260C4D0D4C641BA410DA
:10184C00A64209D100F022F800260A4D0A4C641B6E
:10185C00A410A64205D170BD55F8043B984701363B
:10186C00EEE755F8043B98470136F2E7D418000828
:10187C00D4180008D4180008D818000803460244ED
:10188C00934200D1704703F8011BF9E7F8B500BF8C
:10189C00F8BC08BC9E467047F8B500BFF8BC08BC45
:0418AC009E4670479D
:1018B0000000000000000000010203040607080900
:1018C00002030405060708090A0B0C0D0E0F101081
:0418D0000102000011
:0418D40031010008D6
:0418D8000D010008F6
:1018DC0003000000050000000300000005000000EC
:0C18EC0000127A00100000000100000053
:0400000508000A45A0
:00000001FF
