:020000040800F2
:1000000000280020490F0008ED0E0008F30E00083C
:10001000F90E0008FF0E0008050F000800000000A0
:100020000000000000000000000000000B0F0008AE
:10003000170F000800000000230F00082F0F000812
:10004000910F0008910F0008910F0008910F000810
:10005000910F0008910F0008910F0008910F000800
:10006000910F0008910F0008910F0008910F0008F0
:10007000910F0008910F0008910F0008910F0008E0
:10008000910F0008910F0008910F0008910F0008D0
:10009000910F0008910F0008910F0008910F0008C0
:1000A000910F0008910F0008910F0008910F0008B0
:1000B000910F0008910F000800000000910F000848
:1000C000910F00080000000000000000910F0008E0
:1000D00000000000910F0008910F000800000000D0
:1000E000910F0008910F0008910F00080000000018
:1000F0000000000000000000000000000000000000
:0C01000000000000000000005FF808F1A3
:10010C0010B5054C237833B9044B13B10448AFF345
:10011C0000800123237010BD24000020000000008B
:10012C00D01D000808B5034B1BB103490348AFF3BE
:10013C00008008BD0000000028000020D01D000831
:10014C0080B500AF2021044801F01AFA4021024882
:10015C0001F016FA00BF80BD0008014080B500AF69
:10016C00204B1B68022B1BD0052B33D100222021E6
:10017C001D4801F0EDF9012240211B4801F0E8F97E
:10018C001A4B1B68013B194A1360184B1B68002B58
:10019C0022DC144B02221A60144B02221A601BE060
:1001AC0001222021104801F0D3F9002240210E48F1
:1001BC0001F0CEF90D4B1B68013B0C4A13600B4B45
:1001CC001B68002B0ADC074B05221A60074B022226
:1001DC001A6003E000BF02E000BF00E000BF00BFF8
:1001EC0080BD00BF0400002000080140000000207A
:1001FC0080B500AF2021064801F0C2F94021044827
:10020C0001F0BEF91021024801F0BAF900BF80BD1F
:10021C000008014080B500AF012201211F4801F008
:10022C0097F9012202211D4801F092F901220421C3
:10023C001A4801F08DF901220821184801F088F9BB
:10024C0001221021154801F083F9012220211348C5
:10025C0001F07EF901224021104801F079F90122C8
:10026C0080210E4801F074F901224FF480710B4883
:10027C0001F06EF901224FF40071084801F068F9A1
:10028C0001224FF48061054801F062F901224FF41C
:10029C000061024801F05CF900BF80BD000C014018
:1002AC0080B500AFB24B1B68052B07D0052B00F3B4
:1002BC00A480022B37D0032B6AD09EE001224FF48E
:1002CC008061AC4801F044F900224FF40061A94868
:1002DC0001F03EF900220121A64801F039F9012272
:1002EC001021A44801F034F900222021A14801F08A
:1002FC002FF9002240219F4801F02AF99E4B1B68E0
:10030C00013B9D4A13609C4B1B68184600F084F916
:10031C00994B1B68002B72DC954B03221A60964B91
:10032C0003221A606BE000224FF48061914801F0C7
:10033C000FF901224FF400618E4801F009F90022F7
:10034C0001218C4801F004F900221021894801F0A8
:10035C00FFF801222021874801F0FAF80022402101
:10036C00844801F0F5F8844B1B68013B824A13600A
:10037C00814B1B68184600F04FF97F4B1B68002B14
:10038C003FDC7B4B05221A607B4B05221A6038E060
:10039C0000224FF48061774801F0DAF800224FF424
:1003AC000061744801F0D4F801220121714801F078
:1003BC00CFF8002210216F4801F0CAF8002220214A
:1003CC006C4801F0C5F8012240216A4801F0C0F8E0
:1003DC00694B1B68013B684A1360674B1B681846E6
:1003EC0000F01AF9644B1B68002B0CDC604B0222EA
:1003FC001A60614B02221A6005E000BF04E000BFE6
:10040C0002E000BF00E000BF5C4B1B68052B07D06F
:10041C00052B00F3A480022B37D0032B6AD09EE06F
:10042C0001220221534801F093F800220421514883
:10043C0001F08EF8002208214E4801F089F80122C3
:10044C0080214C4801F084F800224FF48071494817
:10045C0001F07EF800224FF40071464801F078F864
:10046C00474B1B68013B464A1360454B1B681846BB
:10047C0000F09CFA424B1B68002B72DC3F4B0322B2
:10048C001A603F4B03221A606BE0002202213948AC
:10049C0001F05EF801220421364801F059F80022DF
:1004AC000821344801F054F800228021314801F031
:1004BC004FF801224FF480712E4801F049F80022C8
:1004CC004FF400712B4801F043F82D4B1B68013B96
:1004DC002B4A13602A4B1B68184600F067FA284B0E
:1004EC001B68002B3FDC254B05221A60244B052290
:1004FC001A6038E0002202211E4801F029F800227F
:10050C0004211C4801F024F801220821194801F0AB
:10051C001FF800228021174801F01AF800224FF42E
:10052C008071144801F014F801224FF40071114845
:10053C0001F00EF8124B1B68013B114A1360104B73
:10054C001B68184600F032FA0D4B1B68002B0CDCB4
:10055C000A4B02221A600A4B02221A6005E000BF05
:10056C0004E000BF02E000BF00E000BF00BF80BDA0
:10057C0008000020000C0140100000200C0000209E
:10058C001400002080B500AF8021214800F0F8FF56
:10059C004FF480711E4800F0F3FF4FF400711C48BB
:1005AC0000F0EEFF4FF48061194800F0E9FF4FF4C2
:1005BC000061174800F0E4FF4FF48051144800F03C
:1005CC00DFFF4FF40051124800F0DAFF4FF4805176
:1005DC00104800F0D5FF4FF400510E4800F0D0FF4A
:1005EC004FF480410B4800F0CBFF4FF40041094819
:1005FC0000F0C6FF0221064800F0C2FF04210448A7
:10060C0000F0BEFF0821024800F0BAFF00BF80BD19
:10061C0000080140000C014080B582B000AF78604A
:10062C007B68092B00F2BC8101A252F823F000BFB9
:10063C0065060008B90600080D07000861070008E8
:10064C00B5070008090800085D080008B108000893
:10065C00050900085909000800228021D24800F041
:10066C0077FF00224FF48071CF4800F071FF002219
:10067C004FF40071CC4800F06BFF00224FF4806106
:10068C00C94800F065FF00224FF40061C64800F035
:10069C005FFF00224FF48051C34800F059FF012244
:1006AC004FF40051C04800F053FF79E10122802142
:1006BC00BD4800F04DFF00224FF48071BA4800F0A5
:1006CC0047FF00224FF40071B74800F041FF0122B0
:1006DC004FF48061B44800F03BFF01224FF40061FD
:1006EC00B14800F035FF01224FF48051AE4800F0C4
:1006FC002FFF01224FF40051AB4800F029FF4FE1CE
:10070C0000228021A84800F023FF00224FF48071C2
:10071C00A54800F01DFF01224FF40071A24800F023
:10072C0017FF00224FF480619F4800F011FF002258
:10073C004FF400619C4800F00BFF01224FF48051F4
:10074C00994800F005FF00224FF40051964800F044
:10075C00FFFE25E100228021934800F0F9FE0022E3
:10076C004FF48071904800F0F3FE00224FF40071BA
:10077C008D4800F0EDFE00224FF480618A4800F0B5
:10078C00E7FE01224FF40061874800F0E1FE0122F0
:10079C004FF48051844800F0DBFE00224FF40051EE
:1007AC00814800F0D5FEFBE0012280217E4800F05C
:1007BC00CFFE00224FF480717B4800F0C9FE00226E
:1007CC004FF40071784800F0C3FE01224FF48061B1
:1007DC00754800F0BDFE01224FF40061724800F034
:1007EC00B7FE00224FF480516F4800F0B1FE00229A
:1007FC004FF400516C4800F0ABFED1E00022802198
:10080C00694800F0A5FE01224FF48071664800F0A3
:10081C009FFE00224FF40071634800F099FE002205
:10082C004FF48061604800F093FE01224FF40061A8
:10083C005D4800F08DFE00224FF480515A4800F0C4
:10084C0087FE00224FF40051574800F081FEA7E0CC
:10085C0000228021544800F07BFE01224FF480716D
:10086C00514800F075FE00224FF400714E4800F024
:10087C006FFE00224FF480614B4800F069FE0022AD
:10088C004FF40061484800F063FE00224FF48051A1
:10089C00454800F05DFE00224FF40051424800F044
:1008AC0057FE7DE0002280213F4800F051FE0022DF
:1008BC004FF480713C4800F04BFE00224FF4007165
:1008CC00394800F045FE01224FF48061364800F0B3
:1008DC003FFE01224FF40061334800F039FE012243
:1008EC004FF48051304800F033FE01224FF4005198
:1008FC002D4800F02DFE53E0002280212A4800F004
:10090C0027FE00224FF48071274800F021FE0022C0
:10091C004FF40071244800F01BFE00224FF480615C
:10092C00214800F015FE00224FF400611E4800F033
:10093C000FFE00224FF480511B4800F009FE0022EC
:10094C004FF40051184800F003FE29E000228021EA
:10095C00154800F0FDFD00224FF48071124800F0A4
:10096C00F7FD00224FF400710F4800F0F1FD00225A
:10097C004FF480610C4800F0EBFD01224FF4006154
:10098C00094800F0E5FD00224FF48051064800F0C4
:10099C00DFFD00224FF40051034800F0D9FD00BFE9
:1009AC0000BF0837BD4680BD0008014080B582B04D
:1009BC0000AF78607B68092B00F2A88101A252F885
:1009CC0023F000BFF9090008490A0008990A000839
:1009DC00E90A0008390B0008890B0008D90B00083C
:1009EC00290C0008790C0008C90C000800224FF4EF
:1009FC008051C84800F0ACFD00224FF40051C548AE
:100A0C0000F0A6FD00224FF48041C24800F0A0FD8A
:100A1C0000224FF40041BF4800F09AFD0022022151
:100A2C00BD4800F095FD00220421BB4800F090FD6C
:100A3C0001220821B84800F08BFD67E101224FF438
:100A4C008051B44800F084FD00224FF40051B148AD
:100A5C0000F07EFD00224FF48041AE4800F078FD9E
:100A6C0001224FF40041AB4800F072FD012202213B
:100A7C00A94800F06DFD01220421A74800F068FD93
:100A8C0001220821A44800F063FD3FE100224FF44D
:100A9C008051A04800F05CFD00224FF400519D48AD
:100AAC0000F056FD01224FF480419A4800F050FDB1
:100ABC0000224FF40041974800F04AFD0022022129
:100ACC00954800F045FD01220421934800F040FDBB
:100ADC0000220821904800F03BFD17E100224FF462
:100AEC0080518C4800F034FD00224FF400518948AD
:100AFC0000F02EFD00224FF48041864800F028FDC6
:100B0C0000224FF40041834800F022FD0122022113
:100B1C00814800F01DFD012204217F4800F018FDE2
:100B2C00002208217C4800F013FDEFE001224FF475
:100B3C008051784800F00CFD00224FF400517548AC
:100B4C0000F006FD00224FF48041724800F000FDD9
:100B5C0001224FF400416F4800F0FAFC01220221FF
:100B6C006D4800F0F5FC002204216B4800F0F0FC0D
:100B7C0000220821684800F0EBFCC7E000224FF48B
:100B8C008051644800F0E4FC01224FF400516148AC
:100B9C0000F0DEFC00224FF480415E4800F0D8FCEF
:100BAC0000224FF400415B4800F0D2FC01220221EC
:100BBC00594800F0CDFC00220421574800F0C8FC35
:100BCC0000220821544800F0C3FC9FE000224FF49F
:100BDC008051504800F0BCFC01224FF400514D48AC
:100BEC0000F0B6FC00224FF480414A4800F0B0FC03
:100BFC0000224FF40041474800F0AAFC00220221D9
:100C0C00454800F0A5FC00220421434800F0A0FC5C
:100C1C0000220821404800F09BFC77E000224FF4B2
:100C2C0080513C4800F094FC00224FF400513948AC
:100C3C0000F08EFC00224FF48041364800F088FC16
:100C4C0001224FF40041334800F082FC01220221C2
:100C5C00314800F07DFC012204212F4800F078FC83
:100C6C00012208212C4800F073FC4FE000224FF4C5
:100C7C008051284800F06CFC00224FF400512548AC
:100C8C0000F066FC00224FF48041224800F060FC2A
:100C9C0000224FF400411F4800F05AFC00220221B0
:100CAC001D4800F055FC002204211B4800F050FCAC
:100CBC0000220821184800F04BFC27E000224FF4DA
:100CCC008051144800F044FC00224FF400511148AC
:100CDC0000F03EFC00224FF480410E4800F038FC3E
:100CEC0000224FF400410B4800F032FC012202219B
:100CFC00094800F02DFC00220421074800F028FCD4
:100D0C0000220821044800F023FC00BF00BF083774
:100D1C00BD4680BD000C01400008014080B500AF0D
:100D2C0000F032F900F013F800F04CF8FFF708FA75
:100D3C00FFF75EFAFFF726FCFFF710FAFFF76AFAE7
:100D4C00FFF7AEFA4FF47A7000F080F9F4E780B553
:100D5C0090B000AF07F1180328220021184601F0CB
:100D6C0029F83B1D00221A605A609A60DA601A61F9
:100D7C000223BB610123BB621023FB6200237B6354
:100D8C0007F11803184600F015FC0346002B01D0A0
:100D9C0000F06EF80F237B600023BB600023FB6028
:100DAC0000233B6100237B613B1D0021184600F0B2
:100DBC0081FE0346002B01D000F05AF800BF4037EB
:100DCC00BD4680BD80B586B000AF07F10803002298
:100DDC001A605A609A60DA60224B9B69214A43F090
:100DEC00040393611F4B9B6903F004037B607B68D6
:100DFC001C4B9B691B4A43F008039361194B9B697D
:100E0C0003F008033B603B68002243F6FE71164872
:100E1C0000F09EFB00224FF6FF71144800F098FB87
:100E2C0043F6FE73BB600123FB6000233B6102238E
:100E3C007B6107F1080319460B4800F00FFA4FF6D7
:100E4C00FF73BB600123FB6000233B6102237B61CA
:100E5C0007F108031946054800F000FA00BF1837DF
:100E6C00BD4680BD0010024000080140000C01404E
:100E7C0080B400AF72B600BFFEE7000080B485B04E
:100E8C0000AF154B9B69144A43F001039361124B5D
:100E9C009B6903F00103BB60BB680F4BDB690E4A17
:100EAC0043F08053D3610C4BDB6903F080537B60C0
:100EBC007B680A4B5B68FB60FB6823F0E063FB60BC
:100ECC00FB6843F08063FB60044AFB68536000BF1F
:100EDC001437BD4680BC7047001002400000014032
:100EEC0080B400AFFEE780B400AFFEE780B400AF83
:100EFC00FEE780B400AFFEE780B400AFFEE780B43D
:100F0C0000AF00BFBD4680BC704780B400AF00BFCF
:100F1C00BD4680BC704780B400AF00BFBD4680BCEE
:100F2C00704780B500AF00F075F800BF80BD80B48D
:100F3C0000AF00BFBD4680BC70470000FFF7F7FF55
:100F4C000B480C490C4A002302E0D458C45004331B
:100F5C00C4188C42F9D3094A094C002301E01360F0
:100F6C000432A242FBD300F001FFFFF7D7FE70471B
:100F7C000000002024000020141E00082400002083
:100F8C0044000020FEE7000080B500AF084B1B6852
:100F9C00074A43F010031360032000F02BF90F20D5
:100FAC0000F008F8FFF76AFF0023184680BD00BF69
:100FBC000020024080B582B000AF7860124B1A68F6
:100FCC00124B1B7819464FF47A73B3FBF1F3B2FB57
:100FDC00F3F3184600F035F90346002B01D001233A
:100FEC000EE07B680F2B0AD8002279684FF0FF3097
:100FFC0000F00BF9064A7B681360002300E0012324
:10100C0018460837BD4680BD18000020200000207F
:10101C001C00002080B400AF054B1B781A46054B12
:10102C001B681344034A136000BFBD4680BC704765
:10103C00200000204000002080B400AF024B1B6851
:10104C001846BD4680BC70474000002080B584B077
:10105C0000AF7860FFF7F0FFB8607B68FB60FB685F
:10106C00B3F1FF3F05D00A4B1B781A46FB681344BB
:10107C00FB6000BFFFF7E0FF0246BB68D31AFA68BB
:10108C009A42F7D800BF00BF1037BD4680BD00BFE5
:10109C002000002080B485B000AF78607B6803F03E
:1010AC000703FB600C4BDB68BB60BA684FF6FF03B1
:1010BC001340BB60FB681A02BB68134343F0BF6369
:1010CC0043F40033BB60044ABB68D36000BF1437E1
:1010DC00BD4680BC704700BF00ED00E080B400AF9F
:1010EC00044BDB681B0A03F007031846BD4680BCA3
:1010FC00704700BF00ED00E080B483B000AF034642
:10110C003960FB7197F90730002B0ADB3B68DAB2C8
:10111C000C4997F907301201D2B20B4483F8002323
:10112C000AE03B68DAB20849FB7903F00F03043B91
:10113C001201D2B20B441A7600BF0C37BD4680BCEC
:10114C00704700BF00E100E000ED00E080B489B022
:10115C0000AFF860B9607A60FB6803F00703FB61CD
:10116C00FB69C3F10703042B28BF0423BB61FB6994
:10117C000433062B02D9FB69033B00E000237B619F
:10118C004FF0FF32BB6902FA03F3DA43BB681A4033
:10119C007B699A404FF0FF317B6901FA03F3D94325
:1011AC007B680B40134318462437BD4680BC704700
:1011BC0080B582B000AF78607B68013BB3F1807F73
:1011CC0001D301230FE00A4A7B68013B53600F21D6
:1011DC004FF0FF30FFF790FF054B00229A60044B55
:1011EC0007221A60002318460837BD4680BD00BF91
:1011FC0010E000E080B582B000AF78607868FFF74F
:10120C0049FF00BF0837BD4680BD80B586B000AF32
:10121C000346B9607A60FB7300237B61FFF75EFFC6
:10122C0078617A68B9687869FFF790FF024697F998
:10123C000F3011461846FFF75FFF00BF1837BD4649
:10124C0080BD80B582B000AF78607868FFF7B0FFE2
:10125C00034618460837BD4680BD000080B48BB0ED
:10126C0000AF7860396000237B6200233B6248E169
:10127C0001227B6A02FA03F3FB613B681B68FA6983
:10128C001340BB61BA69FB699A4240F037813B68F5
:10129C005B68A34A93425ED0A14A934275D8A14A97
:1012AC00934258D09F4A93426FD89F4A934252D050
:1012BC009D4A934269D89D4A93424CD09B4A934293
:1012CC0063D89B4A934246D0994A93425DD8122BDD
:1012DC002AD8122B59D801A252F823F06313000814
:1012EC003D1300084F1300089113000897130008D2
:1012FC00971300089713000897130008971300081A
:10130C009713000897130008971300089713000809
:10131C0097130008971300089713000897130008F9
:10132C004513000859130008824A934213D02CE04D
:10133C003B68DB683B6229E03B68DB6804333B625B
:10134C0024E03B68DB6808333B621FE03B68DB68EA
:10135C000C333B621AE03B689B68002B02D10423E0
:10136C003B6213E03B689B68012B05D108233B6271
:10137C007B68FA691A6109E008233B627B68FA69A9
:10138C005A6103E000233B6200E000BFBB69FF2B06
:10139C0001D87B6801E07B6804337B61BB69FF2B60
:1013AC0002D87B6A9B0002E07B6A083B9B003B6196
:1013BC007B691A680F213B6901FA03F3DB431A407E
:1013CC00396A3B6901FA03F31A437B691A603B687B
:1013DC005B6803F08053002B00F09080564B9B69A8
:1013EC00554A43F001039361534B9B6903F001038E
:1013FC00BB60BB68514A7B6A9B08023352F82330AE
:10140C00FB607B6A03F003039B000F2202FA03F3D9
:10141C00DB43FA681340FB607B68494A93420DD06A
:10142C007B68484A934207D07B68474A934201D174
:10143C00022304E0032302E0012300E000237A6A84
:10144C0002F0030292009340FA681343FB603B499D
:10145C007B6A9B080233FA6841F823203B685B687F
:10146C0003F48013002B06D0384B9A683749BB69BC
:10147C0013438B6006E0354B9A68BB69DB433349F9
:10148C0013408B603B685B6803F40013002B06D0A1
:10149C002E4BDA682D49BB691343CB6006E02B4B0E
:1014AC00DA68BB69DB4329491340CB603B685B6856
:1014BC0003F40033002B06D0244B5A682349BB6934
:1014CC0013434B6006E0214B5A68BB69DB431F4951
:1014DC0013404B603B685B6803F48033002B06D0F1
:1014EC001A4B1A681949BB6913430B6006E0174B7A
:1014FC001A68BB69DB43154913400B607B6A0133E7
:10150C007B623B681A687B6A22FA03F3002B7FF438
:10151C00AFAE00BF00BF2C37BD4680BC704700BFCC
:10152C0000003210000031100000221000002110C9
:10153C0000001210000011100010024000000140C9
:10154C0000080140000C0140001001400004014063
:10155C0080B483B000AF78600B467B8013467B7001
:10156C007B78002B03D07A887B681A6103E07B8838
:10157C001A047B681A6100BF0C37BD4680BC7047EB
:10158C0080B485B000AF78600B467B807B68DB68ED
:10159C00FB607A88FB6813401A04FB68D9437B888C
:1015AC000B401A437B681A6100BF1437BD4680BCE0
:1015BC007047000080B586B000AF78607B68002B68
:1015CC0001D101236CE27B681B6803F00103002B43
:1015DC0000F08780924B5B6803F00C03042B0CD05B
:1015EC008F4B5B6803F00C03082B12D18C4B5B68A0
:1015FC0003F48033B3F5803F0BD1894B1B6803F4A4
:10160C000033002B6CD07B685B68002B68D1012306
:10161C0046E27B685B68B3F5803F06D1804B1B6864
:10162C007F4A43F4803313602EE07B685B68002BA9
:10163C000CD17B4B1B687A4A23F480331360784BB4
:10164C001B68774A23F4802313601DE07B685B687A
:10165C00B3F5A02F0CD1724B1B68714A43F4802355
:10166C0013606F4B1B686E4A43F4803313600BE0BE
:10167C006B4B1B686A4A23F480331360684B1B68FE
:10168C00674A23F4802313607B685B68002B13D0BC
:10169C00FFF7D2FC386108E0FFF7CEFC02463B694D
:1016AC00D31A642B01D90323FAE15D4B1B6803F4B5
:1016BC000033002BF0D014E0FFF7BEFC386108E0DB
:1016CC00FFF7BAFC02463B69D31A642B01D90323FA
:1016DC00E6E1534B1B6803F40033002BF0D100E020
:1016EC0000BF7B681B6803F00203002B63D04C4BDC
:1016FC005B6803F00C03002B0BD0494B5B6803F0C9
:10170C000C03082B1CD1464B5B6803F48033002B75
:10171C0016D1434B1B6803F00203002B05D07B68EA
:10172C001B69012B01D00123BAE13D4B1B6823F04F
:10173C00F8027B685B69DB00394913430B603AE0C4
:10174C007B681B69002B20D0364B01221A60FFF7F7
:10175C0073FC386108E0FFF76FFC02463B69D31A53
:10176C00022B01D903239BE12D4B1B6803F00203D1
:10177C00002BF0D02A4B1B6823F0F8027B685B69C6
:10178C00DB00274913430B6015E0264B00221A603F
:10179C00FFF752FC386108E0FFF74EFC02463B694C
:1017AC00D31A022B01D903237AE11D4B1B6803F0DA
:1017BC000203002BF0D17B681B6803F00803002B9D
:1017CC003AD07B689B69002B19D0174B01221A6009
:1017DC00FFF732FC386108E0FFF72EFC02463B694C
:1017EC00D31A022B01D903235AE10D4B5B6A03F088
:1017FC000203002BF0D0012000F09AFA1CE00A4BF7
:10180C0000221A60FFF718FC38610FE0FFF714FC98
:10181C0002463B69D31A022B08D9032340E100BFCF
:10182C000010024000004242800442429E4B5B6A20
:10183C0003F00203002BE9D17B681B6803F004035F
:10184C00002B00F0A6800023FB75974BDB6903F09F
:10185C008053002B0DD1944BDB69934A43F080539A
:10186C00D361914BDB6903F08053BB60BB680123F0
:10187C00FB758E4B1B6803F48073002B18D18B4BBC
:10188C001B688A4A43F480731360FFF7D5FB3861F9
:10189C0008E0FFF7D1FB02463B69D31A642B01D950
:1018AC000323FDE0814B1B6803F48073002BF0D005
:1018BC007B68DB68012B06D17B4B1B6A7A4A43F0B1
:1018CC00010313622DE07B68DB68002B0CD1764B97
:1018DC001B6A754A23F001031362734B1B6A724A2D
:1018EC0023F0040313621CE07B68DB68052B0CD12E
:1018FC006D4B1B6A6C4A43F0040313626A4B1B6A00
:10190C00694A43F0010313620BE0674B1B6A664A9A
:10191C0023F001031362644B1B6A634A23F0040334
:10192C0013627B68DB68002B15D0FFF785FB3861F1
:10193C000AE0FFF781FB02463B69D31A41F2883279
:10194C00934201D90323ABE0574B1B6A03F002030C
:10195C00002BEED014E0FFF76FFB38610AE0FFF7C5
:10196C006BFB02463B69D31A41F28832934201D990
:10197C00032395E04C4B1B6A03F00203002BEED1C2
:10198C00FB7D012B05D1484BDB69474A23F0805383
:10199C00D3617B68DB69002B00F08180424B5B6874
:1019AC0003F00C03082B61D07B68DB69022B46D15A
:1019BC003F4B00221A60FFF73FFB386108E0FFF74E
:1019CC003BFB02463B69D31A022B01D9032367E088
:1019DC00354B1B6803F00073002BF0D17B681B6A3E
:1019EC00B3F5803F08D1304B5B6823F400327B6841
:1019FC009B682D4913434B602B4B5B6823F474128B
:101A0C007B68196A7B685B6A0B43274913434B60FD
:101A1C00274B01221A60FFF70FFB386108E0FFF734
:101A2C000BFB02463B69D31A022B01D9032337E087
:101A3C001D4B1B6803F00073002BF0D02FE01C4BE8
:101A4C0000221A60FFF7F8FA386108E0FFF7F4FAA1
:101A5C0002463B69D31A022B01D9032320E0124B17
:101A6C001B6803F00073002BF0D118E07B68DB6976
:101A7C00012B01D1012313E00B4B5B68FB60FB686E
:101A8C0003F480327B681B6A9A4206D1FB6803F42C
:101A9C0070127B685B6A9A4201D0012300E000233C
:101AAC0018461837BD4680BD00100240007000403B
:101ABC006000424280B584B000AF786039607B68CA
:101ACC00002B01D10123D0E06A4B1B6803F0070304
:101ADC003A689A4210D9674B1B6823F00702654994
:101AEC003B6813430B60634B1B6803F007033A68B6
:101AFC009A4201D00123B8E07B681B6803F0020313
:101B0C00002B20D07B681B6803F00403002B05D04E
:101B1C00594B5B68584A43F4E06353607B681B681D
:101B2C0003F00803002B05D0534B5B68524A43F477
:101B3C0060535360504B5B6823F0F0027B689B68EA
:101B4C004D4913434B607B681B6803F00103002B6A
:101B5C0040D07B685B68012B07D1474B1B6803F4B3
:101B6C000033002B15D101237FE07B685B68022BCF
:101B7C0007D1414B1B6803F00073002B09D10123E3
:101B8C0073E03D4B1B6803F00203002B01D10123D2
:101B9C006BE0394B5B6823F003027B685B6836496A
:101BAC0013434B60FFF748FAF8600AE0FFF744FA7A
:101BBC000246FB68D31A41F28832934201D90323BF
:101BCC0053E02D4B5B6803F00C027B685B689B0059
:101BDC009A42EBD1274B1B6803F007033A689A42F1
:101BEC0010D2244B1B6823F0070222493B68134395
:101BFC000B60204B1B6803F007033A689A4201D034
:101C0C00012332E07B681B6803F00403002B08D02F
:101C1C00194B5B6823F4E0627B68DB68164913435D
:101C2C004B607B681B6803F00803002B09D0124B38
:101C3C005B6823F460527B681B69DB000E4913431D
:101C4C004B6000F021F802460B4B5B681B0903F05C
:101C5C000F030A49CB5C22FA03F3094A1360094BC0
:101C6C001B681846FFF7A6F9002318461037BD4627
:101C7C0080BD00BF0020024000100240E81D00089B
:101C8C00180000201C00002080B487B000AF002397
:101C9C00FB600023BB6000237B6100237B6000237F
:101CAC003B611E4B5B68FB60FB6803F00C03042B71
:101CBC0002D0082B03D027E0194B3B6127E0FB68CF
:101CCC009B0C03F00F03174AD35C7B60FB6803F497
:101CDC008033002B10D0114B5B685B0C03F00103BD
:101CEC00114AD35CBB607B680D4A02FB03F2BB68F4
:101CFC00B2FBF3F37B6104E07B680C4A02FB03F359
:101D0C007B617B693B6102E0054B3B6100BF3B693A
:101D1C0018461C37BD4680BC704700BF00100240FF
:101D2C0000127A00F81D0008081E000800093D008A
:101D3C0080B485B000AF78600A4B1B680A4AA2FBDE
:101D4C0003235B0A7A6802FB03F3FB6000BFFB68AA
:101D5C005A1EFA60002BF9D100BF00BF1437BD46E4
:101D6C0080BC704718000020D34D621070B500265F
:101D7C000C4D0D4C641BA410A64209D100F022F8A6
:101D8C0000260A4D0A4C641BA410A64205D170BD56
:101D9C0055F8043B98470136EEE755F8043B984755
:101DAC000136F2E70C1E00080C1E00080C1E000881
:101DBC00101E000803460244934200D1704703F8FA
:101DCC00011BF9E7F8B500BFF8BC08BC9E4670478C
:0C1DDC00F8B500BFF8BC08BC9E4670477C
:101DE80000000000000000000102030406070809C3
:101DF80002030405060708090A0B0C0D0E0F101044
:041E080001020000D3
:041E0C003101000898
:041E10000D010008B8
:101E140002000000050000000300000005000000AF
:101E2400030000000500000000127A00100000000A
:041E340001000000A9
:0400000508000F4997
:00000001FF
